:020000040800F2
:1000000010070020D5010008A51D0008DD1C000810
:10001000A11D0008510C0008B91D000800000000D7
:10002000000000000000000000000000AD1D0008FE
:10003000550C000800000000A91D0008B11D0008B3
:10004000EF010008EF010008EF010008EF010008D0
:10005000EF010008EF010008EF010008EF010008C0
:10006000EF010008EF010008EF010008EF010008B0
:10007000EF010008EF010008EF010008EF010008A0
:10008000EF010008EF010008EF010008EF01000890
:10009000EF010008EF010008EF010008EF01000880
:1000A000EF010008EF010008EF010008EF01000870
:1000B000EF010008EF010008EF010008EF01000860
:1000C000EF010008EF010008EF010008EF01000850
:1000D000EF010008EF010008EF010008EF01000840
:1000E000EF010008EF010008EF01000800F002F83E
:1000F00000F060F814A696E8000CB244B344DA4568
:1001000001D100F057F8BAE80F000FA696E83000CA
:10011000A5EB040504EB0607AAEB0704A7F101070A
:100120004FEA15154FEA3414A4F10104AC4201D38F
:1001300000F040F813F0010F18BFFB1A43F0010361
:1001400000F001F8DBE71847E82E0000082F000058
:10015000103A24BF78C878C1FAD8520724BF30C8F3
:1001600030C144BF04680C60704700007047000055
:100170000023002400250026103A28BF78C1FBD8B0
:10018000520728BF30C148BF0B607047662902F094
:10019000DA86752900F05280002070471FB500F004
:1001A000E1FB04000020002102F08EFCE0601FBD96
:1001B00010B510BD00F0D6FC1146FFF7EFFF01F0BF
:1001C000FDFD00F0F4FC03B4FFF7F2FF03BC00F008
:1001D00037FD00000948804709480047FEE7FEE771
:1001E000FEE7FEE7FEE7FEE7FEE7FEE7FEE7FEE7E7
:1001F00004480549054A064B70470000B51D000834
:10020000ED0000081001002010070020100300205E
:10021000100300200FB41CB5074B06AA7B446946A7
:100220000090059800F085FB0020694600F094FBE3
:100230001CBC5DF814FB0000390700002DE9F041FB
:100240000646002410687529314616A510D0AFF374
:100250000080002802DA404213A507E031688A07CF
:1002600001D512A502E0490704D511A5012401E03A
:10027000AFF3008000210A2206F1240709E0B0FB59
:10028000F2FCB0FBF2F302FB1C003030785418464D
:10029000491C0028F3D123462A463046BDE8F041E8
:1002A00000F0DAB8000000002D0000002B00000074
:1002B000200000002DE9F0474FF0000A894604466F
:1002C000C0F820A02046E1688847002876D025287D
:1002D00006D0D4E901219047206A401C2062F1E752
:1002E000E168204600268847C4F81CA00546002780
:1002F000C4F818A02A2D09D0284602F0DDFB38B337
:1003000004EB8708303DC8F8185019E059F8041B71
:10031000204604EB87029161E1688847012F05467A
:1003200018D1E069002820DA26F020061DE0D8F870
:10033000180000EB800005EB40003038C8F81800CA
:100340002046E1688847054602F0B6FB0028EED15A
:10035000012F0AD02E2D08D12046E16888477F1C46
:100360000546022F46F02006C4DBA069002803DA08
:10037000404246F00106A061F00701D026F01006C9
:100380006C2D0AD0682D08D04C2D39D06A2D35D06F
:10039000742D35D07A2D33D016E0E1682F462046F3
:1003A0008847B84205460AD16C2F27D04FF48060A9
:1003B000E168064320468847054605E027E06C2FA4
:1003C0001AD04FF4807006430DB3A5F141001928EF
:1003D00002D8203546F400664A4629462046266063
:1003E0004E46FFF7D3FE80B101280BD0F61D26F054
:1003F000070000F1080965E74020E4E78020D7E71F
:100400000020D5E706F104095CE7284661E7206A89
:10041000BDE8F08710B5431C02E010F8011B71B174
:100420008107FAD14FF0013202C88C1A8C4314EACA
:10043000C211F9D0C01A0A0603D0C01E10BDC01ADE
:1004400010BD0A0401D0801E10BD0902FCD0401E60
:1004500010BD7047704770472DE9F0470D4699462B
:100460009246044600F124080168880604D5E06934
:1004700021F01001216000E00120A84201DD471BAE
:1004800000E00027A1697A1902EB0900081AA061AF
:100490002078C00602D42046AFF30080002608E092
:1004A000D4E901211AF806009047206A401C761C06
:1004B00020624E45F4DB2078C0060AD52046AFF313
:1004C000008006E0D4E9012130209047206A401CDA
:1004D0002062381EA7F10107F4DC07E0D4E901210E
:1004E00018F805009047206A401C2062281EA5F1DC
:1004F0000105F3DC2046AFF300802078000602D52A
:100500000220BDE8F0870120FBE72DE9FF4F0C46F4
:100510001E464FF0FF378BB0D2E90001DDF8608056
:100520000A908A46C1F30A5505B93D46002108469E
:100530004FF00000BAF1000F00F4400005DA00EBC4
:1005400080004FF4400101EA50004FEA9059B9F1A0
:10055000010F00DDB9460A9850EA4A000ED044F671
:100560001050A5F2FF3545432F14B8F1000F1ED0EF
:100570007542291E1EDDC9F100021CE0B8F1010F11
:100580004FF0000001D0302103E0F24305E0215498
:10059000401CB042FBDB30460022002121540B9965
:1005A000C1F80880C1E900200FB0BDE8F08FBD1B85
:1005B0006D1CDEE74A4600DA694206A800F05CFAE4
:1005C00006AB93E8070003AB83E8070050460A999F
:1005D00001F096FE8DE80700A0F500501F3800904E
:1005E0000398002D0ADD42F21F014A460844002309
:1005F00003A90390684602F0FFF809E0A0F5005057
:100600004A461F38002303A90390684602F009F9FF
:100610008DE807000004000C03D04FF0FF304108C4
:1006200000E01046B8F1000F03D0002200921546FA
:100630001EE0751E05D400F099F9303262556D1E2A
:10064000F9D5B3460122084302D000227F1C04E002
:100650002078302801D100227F1E002A099784D0FB
:100660001DE0112D07DA00F081F9303262556D1C62
:1006700050EA0102F5D1084302D00098C8B10EE05B
:100680000021681E05E0235C625C63542254401E16
:10069000491C8142F7DBAB46A81B401E0990002095
:1006A00004F80B000B98099AC0F80880C0E9002BE9
:1006B0007AE711264FF0000857E72DE9F04F8846FA
:1006C0000446D21D22F0070191B0D1E90001CDE925
:1006D0000A0102F0DDF902460B98C00F01D02D206F
:1006E00007E02068810701D52B2002E0202101EAE4
:1006F000C000032A099001D0072A05DB03464146C2
:10070000204600F079F90BE12078800601D5E069F8
:1007100000E00620B8F1650F814606D0B8F1660FFB
:1007200018D0B8F1670F70D131E00020B9F1110F86
:10073000009001DB112301E009F101030AAA01A9DC
:100740000CA8FFF7E2FEDDE90C70002609F10105B7
:10075000834647E001204B4600904FF000470AAA2D
:1007600001A90CA8FFF7D1FEDDE90DB00C995D469B
:10077000002610B909F101000D18B9EB050003D4EA
:10078000C0F1FF3609F10105A5EB09002BE0B9F135
:10079000010F01DA4FF001090020B9F1110F0090AB
:1007A000484601DD112300E003460AAA01A90CA86E
:1007B000FFF7ABFEDDE90C704D460026834620783E
:1007C00000070AD4AB4500DA5D4601A8012D04DD1F
:1007D000411911F8011C302907D04F4502DA17F1F1
:1007E000040F04DA012082460FE06D1EEEE7002FB1
:1007F00002DCED1B3E4403E0781CA84200DD7D1CBA
:10080000B81B00F1010A4FF000472078000703D41D
:10081000AA4501DB4FF0FF3A0021B7F1004F0DF17F
:1008200043088DF8431024D002202B23002F01DA37
:100830007F422D230A21021EA0F1010000DC5FB1DE
:1008400097FBF1FC97FBF1F201FB1C7C17460CF1C6
:10085000300C08F801CDEEE7A8F101000370218803
:10086000090501D5452100E06521A0F1010800F846
:10087000011C09980FA9A1EB0807FF1D00B1012079
:10088000411901EBEA70A1693844081A401EA061C1
:100890002078C00602D42046AFF30080099828B122
:1008A000D4E901219047206A401C20622078C006CC
:1008B00022D52046AFF300801EE0002E04DBB345B6
:1008C00002DD01A8805D00E03020D4E901219047DD
:1008D000206A401C2062761CAAF101005FEA000A2F
:1008E0000AD100F03FF8C0680168405CD4E90121FA
:1008F0009047206A401C2062281EA5F10105DCDC1F
:1009000007E0D4E9012118F8010B9047206A401C48
:100910002062381EA7F10107F3DC2046AFF3008008
:10092000032011B041E6000001694A1C0261087809
:10093000704700B58FB0CDE901310021059105491F
:100940007944CDE9031011466846FFF7B3FC0FB0B8
:1009500000BD0000E5FFFFFF0A6802F8010B0A6016
:1009600070470000004870473000002030B5B0F1FB
:100970000A0271F100034FEA900E4EEA817EB0EB5D
:100980000E0061EB91014FEA101E4EEA017E10EB62
:100990000E0041EB11114FEA102E4EEA016E10EBE2
:1009A0000E0041EB11214FEA104E4EEA014E10EBC2
:1009B0000E0041EB1141401841F100014FEAD00017
:1009C00040EA41704FEAD1014FEA810444EA907451
:1009D00010EB800544EB01046D1944EB0404521B39
:1009E000A3414FF0000348BF0A3200D530BD401C80
:1009F00041F1000130BD00002DE9F0411F460446E1
:100A000003260168072A01F4006004DB08B116A57B
:100A100005E016A503E008B115A500E015A521F035
:100A200010002060A069C01EA0610FB1401EA0612F
:100A30002046AFF300804FB1D4E9012138469047FA
:100A4000206A401C2062C01C206206E0206AFAE78F
:100A5000D4E9012115F8010B9047761EF8D2204603
:100A6000AFF30080BDE8F0814E414E006E616E0034
:100A7000494E4600696E66002DE9F04781461646EC
:100A80008AB0354878440DC88DE80D003248784466
:100A9000801C03AC0DC884E80D0041F69B3008446F
:100AA000372190FBF1F290FBF1F5A5F1800501FBF8
:100AB00012041B3C02D56442012000E00020DFF854
:100AC00098A080460027FA44AAF1BE0A0EE0E0078B
:100AD0000AD03246684607EB470101230AEB810141
:100AE00001F09FFE8DE8070064107F1C002CEED102
:100AF000194F7F44AE3F19E0E80715D007EB04100B
:100B00000DF1180A90E80E008AE80E00C068F04265
:100B100001D1981908903246012306A903A801F0D3
:100B200080FE03AB83E807006D10641C002DE3D149
:100B30004FF0010332466946B8F1000F03A802D016
:100B400001F05AFE01E001F06CFEC9E90001C9F8AC
:100B500008200AB0BDE8F087402500000048704733
:100B6000100000207546FFF7F9FFAE460500694604
:100B7000534620F00700854618B020B5FFF738FB34
:100B8000BDE820404FF000064FF000074FF000088E
:100B90004FF0000BAC46ACE8C009ACE8C009ACE8CB
:100BA000C009ACE8C00921F007018D46704710B5B7
:100BB0000446AFF300802046BDE81040FFF703BBBA
:100BC0004FF0013C50F8042B51F8043B9A4221D1DC
:100BD000A2EB0C03934313EACC1317D150F8042B68
:100BE00051F8043B9A4215D1A2EB0C03934313EA4C
:100BF000CC130BD150F8042B51F8043B9A4209D185
:100C0000A2EB0C03934313EACC13DBD04FF00000AC
:100C1000704700BFD01A01BAB1FA81F101F0180192
:100C200022FA01F0CB40DBB2C0B2C01AC1F1200100
:100C30002CFA01F3D11A914311EAC311E6D170479E
:100C400001491820ABBEFEE72600020070470000F5
:100C5000FEE7000070470000B0B5044600F024F93C
:100C6000054640F20000C2F200000078611C18BF87
:100C7000044400BF00F018F9401BA042FAD3B0BDF5
:100C80002DE9F04F82B00E68002E00F0FD8041F299
:100C90000042C4F20102042340F2004E904208BF19
:100CA00003234FF6FF7CC4F2010E009300240123BE
:100CB000C1F2100C4FF0000A4FF000094BE000BFEA
:100CC00041F20002C4F20102009F904208BF0227D5
:100CD00004F00C030F229A402BEA020207FA03F3F6
:100CE0004FEA9A051A4346F825204E6840F20C4513
:100CF000F202DEF8082054BF22EA080242EA0802A3
:100D0000C4F20105CEF808202A68B30254BF22EAD3
:100D1000080242EA08022A60B303DEF8042054BF46
:100D200022EA080242EA0802F303CEF80420DEF8C1
:100D300000204FF0010354BF22EA080242EA0802F1
:100D4000CEF800200E680AF1010A36FA0AF204F120
:100D5000040400F0998003FA0AFB16EA0B08F1D0AC
:100D60004E68664512DC122E56D8DFE806F0350BC9
:100D70004D49555555555555555555555555554547
:100D8000510000BFD1F80C9046E000BF4FF6FF7253
:100D9000C1F2210296420FDC0022C1F211029642FA
:100DA0001AD00022C1F21202964215D00022C1F2DE
:100DB0002102964210D02FE00022C1F22202964278
:100DC0000AD00022C1F23102964205D00022C1F2BF
:100DD0003202964220D100BF8A684AB1012A14BF6C
:100DE000C0F814B0C0F810B04FF0080914E000BF0C
:100DF0004FF0040910E000BFCA6802F104090BE0DB
:100E00004FF0000908E000BFCA6802F1080903E0DA
:100E1000CA6802F10C0900BF02462646B8F5807F79
:100E200024BF0432203E17680F25B54027EA050588
:100E300009FA06F635431560CA79D2067FF582AF06
:100E400041F21803C4F202031A68AEF57E7642F04E
:100E500001021A601A6802F001020192019A2AF056
:100E6000030256F802B040F60002C4F201029042BA
:100E700008D040F60042C4F2010290427FF420AF55
:100E8000012725E7002723E702B0BDE8F08F000027
:100E90008068084018BF012070470000002A08BF82
:100EA000090401617047000040F20810C2F200001E
:100EB0000068704740F2000040F20811C2F20000E2
:100EC000C2F2000100780A68104408607047000010
:100ED00080B542F20000C4F20200016841F0100146
:100EE0000160032000F07AF80F2000F005F800F010
:100EF00027F8002080BD000070B540F20006C2F265
:100F0000000640F208013278C2F200014FF47A7311
:100F10000968B3FBF2F20446B1FBF2F1084600F0B7
:100F200073FB0F2C4FF0010508D838B94FF0FF3094
:100F300021460022002500F025F87460284670BD87
:100F400082B041F21800C4F202000168022241F0AE
:100F500001010160016801F00101019101994168FD
:100F600041F080514160406800F08050009000984E
:100F70000420C4F20100016862F31A61016002B04A
:100F80007047000010B54EF60C5CCEF2000CDCF899
:100F90000030C3F3022E8EF00704042C28BF042473
:100FA000BEF103034FF0FF3E0EFA04F438BF0023F6
:100FB000A14399400EFA03F39A43114300F00F0244
:100FC00000F160430901043A03F5644362440028D8
:100FD00048BF02F10C03197010BD00004EF60C5111
:100FE000CEF200010A684FF6FF031A4060F30A22AE
:100FF00042F0806040F0FD7008607047002804BF38
:10100000012070472DE9F04381B042F20008C4F29C
:1010100002080446D8F800000D4600F0070081429F
:101020000CD9D8F8000020F007002843C8F80000C9
:10103000D8F8000000F00700A8426CD1206841F207
:1010400004098107C4F2020917D5410705D5D9F86B
:10105000001041F4E061C9F80010010705D5D9F886
:10106000001041F46051C9F80010D9F80010A268CE
:1010700021F0F0011143C9F80010C00742D1D8F89F
:10108000000000F0070085420CD2D8F8000020F0E4
:1010900007002843C8F80000D8F8000000F0070057
:1010A000A84238D12068410707D5D9F80010E26876
:1010B00021F4E0611143C9F80010000708D5D9F800
:1010C0000000216920F4605040EAC100C9F8000026
:1010D000D9F8002002F00C00082841F20020C0F2EC
:1010E0007A004DD142F6FA73C2F38341C0F6000391
:1010F000595CD20338D440F60010C0F23D0048439A
:101100003EE000BF606859F8041C022808D001289E
:1011100026D1890306D4012001B0BDE8F08300BFC9
:101120008901F8D5D9F8001021F003010843C9F866
:101130000000FFF7B9FE064641F28837D9F80000F3
:10114000616800F00C00B0EB810F98D0FFF7ACFEA7
:10115000801BB842F2D9032001B0BDE8F08300BF84
:101160008907D8D5DEE700BFD9F8002042F6F8732A
:10117000C2F34042C0F600039A5C4843B0FBF2F071
:10118000D9F8001042F6E072C1F30311C0F6000274
:10119000515C40F2080220FA01F140F20400C2F270
:1011A00000000068C2F200021160FFF7A5FE0020F7
:1011B00001B0BDE8F083000040F2080041F20401F4
:1011C000C2F20000C4F202010068096842F6F0723F
:1011D000C1F30221C0F60002515CC8407047000014
:1011E00040F2080041F20401C2F20000C4F2020120
:1011F0000068096842F6F072C1F3C221C0F600022D
:10120000515CC84070470000002804BF01207047AF
:101210002DE9F04182B00446007841F20006C00793
:10122000C4F202060CD0706800F00C00042840F0F4
:1012300081803068800303D56068002800F0468113
:10124000207880071BD5706810F00C0F09D07068EB
:1012500000F00C00082840F087807068C00300F19F
:1012600083803068800703D52069012840F02E81F3
:101270003068616920F0F80040EAC10030602078F1
:10128000000713D4207840072CD4E569002D00F026
:101290001881706800F00C00082840F0A780012D2C
:1012A00040F00481012002B0BDE8F081A06900286F
:1012B00000F084800020C4F242200121C0F8801494
:1012C000FFF7F2FD054600BF706A800700F1B280AB
:1012D000FFF7EAFD401B0228F6D9032002B0BDE863
:1012E000F08100BFF0695FEAC00808D4F06940F0FF
:1012F0008050F061F06900F080500090009847F253
:101300000007C4F200073868C00549D4386840F4C3
:1013100080703860FFF7C8FD054600BF3868C0051B
:101320003ED4FFF7C1FD401B6428F7D9032002B06B
:10133000BDE8F081706800F00C00082803D17068E7
:10134000C0033FF576AF61683068002900F00C817A
:10135000B1F5A02F00F00081B1F5803F40F01A8177
:1013600040F480301CE100BF2069002840F20000FA
:10137000C4F2422000F0888001210160FFF794FD53
:10138000054600BF306880073FF572AFFFF78CFD60
:10139000401B0228F6D9032002B0BDE8F08100BF4F
:1013A000E168306A002900F09D80052900F09280F4
:1013B000012940F0AF8040F00100B1E00020C4F20C
:1013C00042200021C0F88014FFF76EFD054600BFE3
:1013D000706A80077FF556AFFFF766FD401B022855
:1013E000F6D9032002B0BDE8F08100BF0027C4F2A7
:1013F000422700203866FFF757FD022D05460DD124
:101400003068800140F1DE80FFF74EFD401B02286E
:101410004FF00300F4D902B0BDE8F08130688001DC
:101420004FD5FFF741FD401B02284FF00300F5D9CF
:10143000F1E700BF40F20800C2F20000006844F685
:10144000D351C1F26201A0FB0101480A019000BF23
:1014500000BF0198411E002801913FF413AF00BF67
:101460000198411E002801913FF40CAF00BF019884
:10147000411E002801913FF405AF00BF0198411EB5
:1014800000280191E4D1FDE600210160FFF70CFD89
:10149000054600BF306880077FF5F1AEFFF704FD19
:1014A000401B02284FF00300F4D9B4E77068216AAA
:1014B00000F480328A4209D1616A00F470108842D7
:1014C00004D1002002B0BDE8F08100BF012002B0CD
:1014D000BDE8F08140F004003062306A40F0010065
:1014E0001EE000BF20F001003062306A20F00400EE
:1014F0003062FFF7D9FC054641F28837306A800731
:1015000020D5FFF7D1FC401BB8424FF00300F5D9BE
:1015100081E700BF20F001003062306A20F0040053
:101520003062FFF7C1FC054641F28837306A800718
:1015300008D4FFF7B9FC401BB842F7D9032002B02A
:10154000BDE8F081B8F1000F3FF59FAEF06920F0E3
:101550008050F06199E600BF40F480203060306830
:1015600040F480301CE000BF20F4803030603068F0
:1015700020F480203060FFF797FC05463068800338
:101580007FF55EAEFFF790FC401B64284FF0030030
:10159000F4D940E720F480303060306820F48020B7
:1015A0003060FFF781FC0546306880033FF548AEA8
:1015B000FFF77AFC401B6428F6D9032002B0BDE88F
:1015C000F08100BF206AB0F5803F05D17168A26844
:1015D00021F40031114371607168626A21F4741161
:1015E00011430843706001203866FFF75DFC044634
:1015F000306880013FF565AFFFF756FC001B0228FD
:101600004FF00300F4D906E7411E0020B0EB116F44
:101610001CBF012070474EF21002CEF20002516052
:101620004EF62351CEF20001F0230B70072190609B
:101630001160704790F83C20012A4FF0020236D02A
:1016400010B580F83D200268D2F804E0D2F808C056
:101650000C682EF07003234340F2FF74C4F20004C0
:10166000A24253600ADCB2F1804F13D040F2004333
:10167000C4F200039A420DD011E000BF42F60043CD
:10168000C4F201039A4205D040F60003C4F20003FD
:101690009A4204D149682CF08003194391600121DA
:1016A000002280F83D1080F83C20BDE81040104634
:1016B00070470000002804BF0120704710B590F863
:1016C0003D1031B9002180F83C10044600F070F85C
:1016D0002046022180F83D10016840F2FF740B683B
:1016E000C4F2000442F6004CA142C4F2010C15DC25
:1016F000B1F1804F1AD040F20042C4F20002914290
:1017000014D0A14218DCB1F1804F1DD040F200424C
:10171000C4F20002914217D01AE000BF614505D023
:1017200040F60002C4F200029142EAD1826823F03E
:1017300070031343A142E6DD614505D040F6000287
:10174000C4F20002914203D1026923F440731343AF
:10175000846923F08002D0F804E0C3682243614525
:101760000A60CB62C1F828E002D14269CCF830208F
:1017700001224A610B69DB0703D00B6923F00103E7
:101780000B6180F8462080F83E2080F83F2080F8EA
:10179000402080F8412080F8422080F8432080F8E3
:1017A000442080F8452080F83D20002010BD000036
:1017B0000068B0F1804F18BF704781B041F21C0043
:1017C000C4F20200016841F001010160006800F00C
:1017D00001000090009801B07047000090F83D10A3
:1017E00001291CBF01207047022180F83D100068CC
:1017F00040F2FF71C4F20001884209DCB0F1804F71
:1018000012D040F20041C4F2000188420CD012E034
:1018100042F60041C4F20101884205D040F60001C1
:10182000C4F20001884206D1816801F0070106294F
:1018300004BF00207047016841F0010101600020F1
:101840007047000090F83C20012A4FF002026CD053
:1018500080B580F83D20D0F800C04FF67772DCF8F4
:10186000083023EA0202CCF808200B684F2B29DC51
:101870001F2B45DD202B46D0302B44D0402B40F091
:10188000AF80D1F804E0C968DCF82030DCF8202013
:1018900022F00102CCF82020DCF8182022F0F0021F
:1018A00042EA011123F00A0242EA0E02CCF81810B3
:1018B000CCF82020DCF8081041F0470121F030017D
:1018C00028E000BF6F2B33DDB3F5005F74D0B3F5B4
:1018D000805F21D0702B40F08380D1E901E3C9689B
:1018E000DCF8082043EA0E0322F47F4243EA012198
:1018F0001143CCF80810DCF8081041F0770109E03A
:101900000BB1102B6CD1DCF8081021F070011943D9
:1019100041F00701CCF808100022012180F83D10A9
:10192000002180F83C10BDE880401046704700BFA1
:10193000502B21D0602B53D1D1F804E0C968DCF8DA
:101940002030DCF8202022F01002CCF82020DCF837
:10195000182022F4704242EA013123F0A00242EA48
:101960000E12CCF81810CCF82020DCF8081041F04A
:10197000670121F01001CDE7D1F804E0C968DCF877
:101980002030DCF8202022F00102CCF82020DCF806
:10199000182022F0F00242EA011123F00A0242EA82
:1019A0000E02CCF81810CCF82020DCF8081041F01A
:1019B000570121F02001ADE7D1E901E3C968DCF866
:1019C000082043EA0E0322F47F4243EA0121114337
:1019D000CCF80810DCF8081041F480419AE700BF09
:1019E00001229AE7002804BF0120704710B5044681
:1019F00090F8410028B9002084F84000204600F00B
:101A000063F8242084F841002068D4E90212C368F6
:101A100023F40053C360036923F440531A43026163
:101A2000D4E904231143C268194341F20C639A4379
:101A30001143C1604169A26921F44071114343F629
:101A40000002C4F201029042416103D0FFF7B4FBEF
:101A500002E000BFFFF7C4FBD4E90023192148438B
:101A60009900B0FBF1F048F21F5CC5F2EB1CA0FB43
:101A70000C314FF69C734909C0F6FF7301FB03005C
:101A8000322303EB0010A0FB0C03F02000EA5310FC
:101A900000EB0110C3F3431108449060106920214A
:101AA00020F490401061506920F02A005061D06805
:101AB00040F40050D0600020606484F8411084F845
:101AC0004210606310BD000070B586B040F600049F
:101AD000C4F20104006804F54051002688420596CE
:101AE000CDE90366029601D006B070BD41F2180040
:101AF000C4F20200016802AD41F480410160016856
:101B000001F4804101910199016841F004010160F3
:101B10000068294600F00400019001984FF400701D
:101B2000029002200390032005902046FFF7A8F8BA
:101B30004FF48060CDE90206204629460496FFF75F
:101B40009FF806B070BD00002DE9F04381B0044657
:101B500090F84100202809D100294FF0010018BF5A
:101B6000002A07D101B0BDE8F08300BF022001B018
:101B7000BDE8F0830020606421201D460E4684F8F5
:101B800041001746FFF790F9A784E784A1688146D2
:101B9000B1F5805F02D1206900285DD03746002072
:101BA000E28C2168002A5DD06A1C24D0002D4AD026
:101BB000804600BF0868000608D4FFF775F9A0EB5F
:101BC0000900A8427AD82168C868F3E717B117F866
:101BD000010B04E038F8020B00276FF35F20486028
:101BE000E08C0138E084E08C0028E3D13AE000BFCB
:101BF0000A68120609D40A68120606D40A68120690
:101C00005CBF0A685FEA0262F2D51FB117F8012BC8
:101C100005E000BF30F8022B00276FF35F224A6017
:101C2000E28C013AE284E28C002AE4D11AE000BF9F
:101C300030F8022B00276FF35F224A60E28C013AF2
:101C4000E284E28C72B10A68120635D5002FEFD01B
:101C500017F8012BF1E700BF00273046E28C21681E
:101C6000002AA1D1086840061ED42DB3681C14D1E7
:101C7000086840062AD40868400627D40868400649
:101C800024D4086840064FF00000F1D50DE000BFF5
:101C90002068C1680068400618D4FFF705F9A0EB7A
:101CA0000900A842F4D909E00020202184F841105D
:101CB00001B0BDE8F08300BFFFF7F6F80320202154
:101CC00084F8411001B0BDE8F08300BF002020215E
:101CD00084F8411001B0BDE8F0830000FEE7000089
:101CE0002DE9F04385B040F600098046C4F20109B1
:101CF0000E464846414600220024FFF7CFF8012057
:101D0000CDE902040320049001A948460196FEF79C
:101D1000B7FF484631460022FFF7C0F80120FEF722
:101D20009BFF01A94846CDE90164CDE90344FEF7D4
:101D3000A7FF40F27004C2F20004A068416A00BF2D
:101D4000426A521A092A0BD8426A521A092A07D83B
:101D5000426A521A092A03D8426A521A0A2AEFD34F
:101D6000002148F2A0654162484641460122C0F286
:101D70000105FFF793F800BF48463146FFF788F8A2
:101D8000A1684F6A10B9AF42F6D92F46484641467E
:101D90000022FFF783F8384605B0BDE8F083000065
:101DA000FEE70000FEE700007047000070470000FB
:101DB000FFF780B870470000FEE70000B0B0FFF703
:101DC00087F800240120CDE90944CDE907440490B7
:101DD00008904FF4E0104FF4803102250D9004A8D4
:101DE000CDE90514CDE90B51FFF70EFA20B1EFF361
:101DF000108072B6FEE700BF0F20CDE92A054FF430
:101E00008060CDE92D042AA802212C94FFF7F6F872
:101E100020B1EFF3108072B6FEE700BF002641F25A
:101E20001800CDE90666CDE90466C4F20200016837
:101E300040F6000441F0200101600168C4F2010491
:101E400001F020012A912A990168002241F0040141
:101E500001600068052100F004002A902A982046BD
:101E60000525FFF71BF801200495CDE905060220A2
:101E700004AD079020462946FEF702FF0A20CDE96F
:101E80000406204629460696FEF7FAFE40F2700A3E
:101E9000C2F2000A4FF08041504640F8081F472127
:101EA0004FF6FF720796CDE90566CDE92A66C0E9CF
:101EB0000116C0E903268661FFF7FCFB20B1EFF3B2
:101EC000108072B6FEE700BF4FF480500AF108059B
:101ED000049004A92846FFF7B5FC28B1EFF3108061
:101EE00072B600BFFEE700BF2AA92846FFF7A2FB93
:101EF00020B1EFF3108072B6FEE700BF40F2C000E1
:101F000004F54051C2F2000000230C274FF4E132E7
:101F100080E80E00C0E90333C0E90573C361FFF731
:101F200061FD28B1EFF3108072B600BFFEE700BF7D
:101F30002846FFF753FC40F2C000C2F20000D4A1D3
:101F40003E22C823FFF700FE0026002505E000BF63
:101F50000544C72E06F101061CD201200221FFF71D
:101F6000BFFEDAF808104A6A4B6A9B1A9B087C2B62
:101F7000EED84B6A9B1A9B087C2BE9D84B6A9B1ABC
:101F80009B087C2BE4D84B6A9B1AB3F5FA7FEBD302
:101F9000DEE700BF284600F003FF0021C4F248310D
:101FA00000F03CFE00260025CAF8000005E000BF56
:101FB0000544C72E06F101061CD204200821FFF7B4
:101FC0008FFEDAF808104A6A4B6A9B1A9B087C2B32
:101FD000EED84B6A9B1A9B087C2BE9D84B6A9B1A5C
:101FE0009B087C2BE4D84B6A9B1AB3F5FA7FEBD3A2
:101FF000DEE700BF48F2A0682846C0F2010800F002
:10200000CFFE0021C4F2483100F008FECAF80400F7
:1020100040F2C000C2F20000ADA12D22C823FFF79C
:1020200093FD01264FF0000941E000BF0025029812
:10203000C4F2C825294600F0F1FD0646384600F0F6
:10204000AFFE294600F0EAFD0290FEF72DFF03994E
:10205000A0EB010BDAE90015304600F0FFFE074661
:102060000298294600F0FAFE0146384600F074FD59
:1020700000F046FD0B4604AD43F20A010246284635
:10208000C0F60001CDF800B0FEF7C4F82846FEF710
:10209000C1F982B240F2C000C2F200002946C82352
:1020A000FFF752FD4FF47A70FEF7D6FD01260027A8
:1020B000FEF7FAFE0025039007E000BF5D44632FA2
:1020C00007F101074FF0010666D2204601210022E8
:1020D000FEF7E4FE4FF0020BCDE904B6032004AE98
:1020E000079020463146CDF81890FEF7C9FD2046EE
:1020F00002210022FEF7D2FE0120FEF7ADFD2046B0
:102100003146CDE904B9CDE90699FEF7B9FDDAF813
:102110000800416A426A521A092A0BD8426A521AC6
:10212000092A07D8426A521A092A03D8426A521A5F
:102130000A2AEFD3C0F82490204601210122FEF79D
:10214000ADFE00BF20460221FEF7A2FEDAF808101D
:10215000D1F824B010B9C345F4D9C34620460121B3
:102160000022FEF79BFEDAF80800416A426A521A22
:1021700092087C2AA2D8426A521A92087C2A9DD8D8
:10218000426A521A92087C2A98D8426A521AB2F5C8
:10219000FA7FEBD392E700BF284600F001FE00254E
:1021A0000027029006E000BF3744632D05F10105CA
:1021B000BFF43CAF204604210022FEF76FFE4FF033
:1021C000000B0120CDE9050B032004AE4FF00809F8
:1021D000079020463146CDF81090FEF751FD20467D
:1021E00008210022FEF75AFE0120FEF735FDCDF84A
:1021F00010904FF0000920463146CDF81CB0CDE9D3
:102200000599FEF73DFDDAF80800416A426A521A64
:10221000092A0BD8426A521A092A07D8426A521A66
:10222000092A03D8426A521A0A2AEFD3C0F8249026
:10223000204604210122FEF731FE00BF204608217E
:10224000FEF726FEDAF808104E6A10B94645F5D9B1
:102250004646204604210022FEF720FEDAF8080058
:10226000416A00BF426A521A92087C2A9CD8426A8C
:10227000521A92087C2A97D8426A521A92087C2AEB
:1022800092D8426A521AB2F5FA7FEBD38CE700BFBC
:1022900044616E67206C6179206D61752063616CAB
:1022A00069627261745341696F6E2062616E20646D
:1022B00061752028567569206C6F6E6720646F69A0
:1022C00020322067696179292E2E2E200D0A000008
:1022D00043616C6962726174696F6E20686FC3A03C
:1022E0006E20743F74212042617420646175206403
:1022F0006F206C69656E207475632E0D0A000000F6
:102300005FEA400C08BF91F0000F4FEA8C234FEAC0
:10231000C12243EA51514FEA1C5018BF00F5F0406A
:102320004FEA300018BF41F000415FEA6C5C00F0FA
:102330002980BCF1FF3F08BF40F080407047130C7C
:1023400006BF12044FF0100C4FF0000C130E04BF28
:1023500012020CF1080C130F04BF12010CF1040C53
:10236000930F04BF92000CF1020CD30F04BF520074
:102370000CF1010C11464FF00002A0F11F00A0EB80
:102380000C00704711F0004F08BF704731F000415A
:102390003FF4D5AF0B0C06BF09044FF0100C4FF003
:1023A000000C0B0E04BF09020CF1080C0B0F04BF4C
:1023B00009010CF1040C8B0F04BF89000CF1020C15
:1023C000CB0F04BF49000CF1010CCCF1200322FA21
:1023D00003F341EA030102FA0CF2A0EB0C0000F156
:1023E0000100704723F07F4720F07F4C80EA030014
:1023F00000F00040ACEB070303F57C5303F1FF034F
:102400002DE9804909B44FEA144324EA03484FEA0E
:10241000154B25EA0B4E0FF2042606EB13273E78E8
:1024200003FB0667C7F5000707FB06F64FEAD6462B
:1024300006F102064FEA543707FB066CCCF1005C4C
:102440004FEA1C472CEA074C0CFB06F507FB06F489
:1024500004EB15464FEA961649085FEA320234BF8C
:1024600000204FF000404FEAD13706FB07FC4FEA4F
:102470001C4C0CFB0BF7D21B03FB0CF761EB0701A9
:102480000CFB0EF7B0EB074072EB17420CFB08F7A2
:1024900034BFA2EB0742B2EB074261EB17414FEAB0
:1024A0000C444FEA910706FB07FC4FEA1C4C0CFB5F
:1024B0000BF7B0EBC74072EB573203FB0CF734BF9E
:1024C000A2EBC742B2EBC74261EB57310CFB0EF7F0
:1024D000B0EBC70072EB57720CFB08F734BFA2EBEE
:1024E000C702B2EBC70261EB57714FEA816141EA63
:1024F00092114FEA826242EA90124FEA806004EB46
:10250000CC04039F4FEAD13706FB07FC4FEA1C4C73
:102510000CFB0BF7D21B03FB0CF761EB07010CFB69
:102520000EF7B0EB074072EB17420CFB08F734BF15
:10253000A2EB0742B2EB074261EB17414FEA8C5521
:1025400004EB9C244FEA910706FB07FC4FEA1C4C66
:102550000CFB0BF7B0EBC74072EB573203FB0CF7E9
:1025600034BFA2EBC742B2EBC74261EB57310CFB61
:102570000EF7B0EBC70072EB57720CFB08F734BFD5
:10258000A2EBC702B2EBC70261EB57714FEA816160
:1025900041EA92114FEA826242EA90124FEA806069
:1025A00015EB4C2544F100044FEAD13706FB07FC3C
:1025B0004FEA1C4C0CFB0BF7D21B03FB0CF761EB37
:1025C00007010CFB0EF7B0EB074072EB17420CFB58
:1025D00008F734BFA2EB0742B2EB074261EB1741A9
:1025E0004FEA813141EA92414FEA823242EA904217
:1025F0004FEA80304FEA0C7615EB1C1544F10004CD
:1026000048EA03434EEA0B484FF0000EB2EB080CC9
:1026100071EB030724BF624639464EEB0E0E4FF0B6
:10262000000B0018524149414BEB0B0BB2EB080C6D
:1026300071EB03077BF1000B24BF624639464EEB7A
:102640000E0E4FF0000B0018524149414BEB0B0BA3
:10265000B2EB080C71EB03077BF1000B24BF624661
:1026600039464EEB0E0E51EA020718BF46F001063E
:1026700016EB0E7655F1000254F1000103D5BDE8CA
:102680008901BDE80088BDE88901BDE80048B619A8
:10269000524141EB0101A3F10103704780807F7E2D
:1026A0007D7C7B7A797877767675747372717170C8
:1026B0006F6E6E6D6C6C6B6A6A696868676666657A
:1026C0006464636362616160605F5F5E5E5D5D5C08
:1026D0005C5B5B5A5A595958585757565655555579
:1026E0005454535352525251515050504F4F4F4ED9
:1026F0004E4D4D4D4C4C4C4B4B4B4A4A4A49494927
:102700004848484747474746464645454544444468
:102710004443434343424242424141419C46002B91
:1027200030D477002BD04FEA37071CB503B44FF0F5
:1027300010004FF01001BAF1000F06D0BCF1000FED
:10274000DCBF40F0080040F008014FF000000FBC73
:10275000BDE810400BF1010BBBF1010F08BF5FEAB0
:10276000170722BF12F1010211F101014FF00041E0
:1027700043F1000300F0004043EA00007047F9D342
:102780005708D0E746EA06464FEA164613F1400FCF
:102790001FDD13F1200FDFBF16430A46002120334F
:1027A0005B42BED0C3F1200746EA06464FEA164612
:1027B00002FA07F746EA070622FA03F2C3F12007F6
:1027C00001FA07F742EA070221FA03F14FF000038A
:1027D000A7E746EA020646EA06464FEA164646EAF2
:1027E0000106BCBF46EA0646360C4FF000034FF028
:1027F00000024FF0000194E72DE9804C70B49A4636
:10280000934691E8380007C831EA400C48BF34EAE3
:10281000430C03D5FFF7E6FDFFF780FFF0BCBDE8F2
:10282000008C2DE9804C70B49A46934691E83800AC
:1028300007C810F0804F08BF13F0804F03D100F09D
:1028400005F8FFF76BFFF0BCBDE8008C20F07F4778
:1028500023F07F4C80EA030000F0004007EB0C03FC
:10286000A3F57C53A3F1FE0392F0000F00F0B380B8
:1028700095F0000F00F077802DE901494FEA1140F3
:1028800021EA00484FEA144624EA064700FB06FC0A
:1028900008FB06F607FB08F818EB06484CEB164C4D
:1028A00000FB07F718EB07484CEB17404FEA124BB9
:1028B00022EA0B4E4FEA154625EA06470BFB06FCBB
:1028C0000EFB06F607FB0EFE1EEB064E4CEB164CFF
:1028D0000BFB07F71EEB074E4CEB174B18EB0B08E7
:1028E00040F1000018EB0E0B58EB000840F100001F
:1028F0008F1A4FF000014FF000063CBFC943661B22
:1029000014BFB5EB040C00213CBFC943F61B4FEAD2
:10291000174427EA04454FEA1C472CEA074C04FBFE
:10292000076205FB07F70CFB05F616EB074642EBC3
:10293000174204FB0CFC16EB0C4642EB1C421BEB53
:10294000060658EB020241414EEA8E0E46EA9E060A
:1029500001D5BDE80189B619524141EB0101A3F14E
:102960000103BDE801894FEA144524EA05464FEA10
:10297000114721EA074C05FB07F406FB07F70CFBA0
:1029800006F111EB074144EB174405FB0CFC11EB7E
:102990000C4144EB1C444FEA124722EA074C05FB6A
:1029A00007F206FB07F70CFB06F616EB074642EBB1
:1029B000174205FB0CFC16EB0C4642EB1C456A1853
:1029C00054F1000148BF7047B619524141EB010173
:1029D000A3F10103704795F0000F37D04FEA114281
:1029E00021EA02464FEA144724EA074C02FB07F1AA
:1029F00006FB07F70CFB06F414EB074441EB174109
:102A000002FB0CFC14EB0C4441EB1C414FEA154754
:102A100025EA074C02FB07F506FB07F70CFB06F659
:102A200016EB074645EB174502FB0CFC16EB0C4674
:102A300045EB1C42121951F1000148BF7047B6190D
:102A4000524141EB0101A3F1010370474FEA1445E4
:102A500024EA05464FEA114721EA074C05FB07F136
:102A600006FB07F70CFB06F212EB074241EB17419E
:102A700005FB0CFC12EB0C4251EB1C414FF0000625
:102A800048BF7047921841EB0101A3F10103704761
:102A9000490050EAC12018BF04204A0D18BF40F079
:102AA000010040F2FF72B2EB515F08BF40F002003C
:102AB000012808BF0520704730380A2801D20120BC
:102AC000704700207047000010B500290AD0087830
:102AD000002807D005487844FEF772F8002801D096
:102AE000002010BD0248784410BD00007A050000A7
:102AF000720500000808A0F500114FEA3101704787
:102B000043004FEAD30C4FEA3C0C43401FBF400741
:102B10000CF1605113F0FE4F70471CF0006F03D1B1
:102B20000CF00041002070470CF0004343EA507065
:102B300040EACC0010B500F046F900BF000000925A
:102B40004FEA0001FFF7D6BF4FF00041A1F5002189
:102B50004FF000007047000090EA010F48BF81F07D
:102B6000004100F18281421A3CBF801A89184FEA65
:102B7000D052A2EBD1534FF07F4C1CEA410F18BF4B
:102B80009CEA026F00F03B804FF0004C4CEA0020C2
:102B90004CEA012121FA03FC10EB0C0C1ED202F1CD
:102BA000FF325FEA1C2040EBC25038BF70471CF078
:102BB0007F0F4FEA400C18BFBCF17F4F38BF704702
:102BC000C3F12003994008BF20F00100BCF17F4F02
:102BD00038BF7047A0F1C04000F03BB94FEA3C005D
:102BE000000A40EBC25028BF1CF0FF0F4FEA400C18
:102BF000E6D018BFBCF17F4F38BF7047EAE79CEAC8
:102C0000026F05D010EA5C0F08BF00F0004070476B
:102C100010B500F0D8F800BF64FBBE3E4FF47F0C47
:102C20001CEAD0121EBF1CEAD11392EA0C0F93EAE1
:102C30000C0F00F0858090EA010F48BF42F48072CB
:102C400040F4000C41F400002CF07F4120F07F4064
:102C500000B5A2EB030281420FF2081CACEB504E10
:102C60009EF800E0C0F100004FEA4E0E00FB0EFCA3
:102C700038BF49004FEA2C1C0CFB0EF34FEACE1E66
:102C80000EEB635E4FEA112C0EFB0CFC4FEAC121E8
:102C90004FEA1C5300FB031102F5FA024FEA112C14
:102CA0000EFB0CFC4FEA01314FEADC4C00FB0C112F
:102CB00042EB2242C14228BF09184CEB03335DF8B6
:102CC00004EB10EB410143EBC250B2F57C0F38BF6F
:102CD000704729D512F0F00F1CBF00F1C04000F082
:102CE00000407047008182838485868788898B8C29
:102CF0008D8E8F919293959697999A9C9D9FA0A265
:102D0000A3A5A7A8AAACAEB0B2B3B5B7B9BCBEC0B4
:102D1000C2C5C7C9CCCED1D4D7D9DCDFE2E6E9EC55
:102D2000F0F3F7FAFE0000004FEA400C0CF1807C53
:102D3000BCF17E4F28BF7047B0F1C04000F089B8A9
:102D40000CEAD11390EA010F48BF42F48072624549
:102D500038BF634507D213F47F0F16D080EA010015
:102D600000F00040704710B500F02DF8097EFC3EE1
:102D700000F005B880EA010000F00040704780EAEA
:102D8000010000F0004000F064B812F47F0F04BFAF
:102D90000248704780EA010000F05BB80000C07F85
:102DA000B0FA80F310FA03F2C3F19D030AD0D905FB
:102DB00001EB1220530638BF704700F1010008BF35
:102DC00020F0010070470EF1020E2EF0030E5EF8A7
:102DD000044B244204D44FEA4102B2F17F4F11D890
:102DE0004FEA4003B3F17F4F0CD80ED14FEAD07CAD
:102DF0000CEB4C0C0CF1020CB2F17F4F08BF4CEB0A
:102E0000D17C04E04FF0080C01E04FEAD17C0CEBE0
:102E10004C0324FA03F404F00704B4F1040C06D2C2
:102E20000EEB840CBDE810404CF0010C6047DFE86D
:102E30000CF0070802024FF00040A0F5800010BD22
:102E40000846420018BFD2F1807288BF00F00040EF
:102E500010BDFF2141EAD050C005704790EA010F34
:102E600048BF81F000413FF57EAE421A04D882F09F
:102E70000042A0EB020011444FEAD052A2EBD15322
:102E80004FF07F4C1CEA410F18BF9CEA026F4AD0FA
:102E90004FF0004C4CEA00204CEA012121FA03FCDF
:102EA000B0EB0C0C0FD412F0FE0F36D05FEA4C00E2
:102EB0001DD5001240EBC25038BF70471CF03F0FC9
:102EC00018BF70470BE05FEA1C20A2F1010240EB43
:102ED000C25038BF70471CF07F0F18BF7047C3F156
:102EE0002003994014BF401E20F0010070474FEAB4
:102EF0001223800808BF7047B0FA80FCA2EB0C02D6
:102F0000CCF1280C60FA0CF093EA122F04BF00EB0E
:102F1000C25070474FEAC3707047130A5FEADC1073
:102F200008BF7047F6E79CEA026F04D010EA5C0F16
:102F300008BF0020704710B5FFF745FF40DFF63EA1
:102F400081F000407047FDF7B8BB00000240000070
:102F5000000000A00000000005400000000000C8C4
:102F6000000000000C4000000000409C0000000039
:102F7000194000000020BCBE0000000034400000EA
:102F8000BFC91B8E00000004B5400000504BCFD0DD
:102F90006607E2CF010000006C4100003E8251AAAA
:102FA000DFEEA73401000000D9420000DCB5A0E24A
:102FB0003A301F97FFFFFFFFB4450000FD25A0C872
:102FC000E9A3C14FFFFFFFFFFF3F000000000080AB
:102FD00000000000FF3F0000000000800000000033
:102FE00000000000000000000102030406070809B9
:102FF00000000000010203040102020304050607A9
:1030000008090A0B0C0D0E0F10106774203D2025C7
:103010002E3266207573207C20546F6E6720746793
:1030200020646F3A20256C75206D730D0A00000036
:10303000703000080000002010000000500100085F
:103040008030000810000020000700007001000818
:103050001C00000043000000F8FFFFFF0C00000010
:103060000E0000000F0000002E0000000000000015
:10307000010000001000000000127A0000000000B3
:04000005080000ED02
:00000001FF
